:100000000C9428010C9459010C9459010C94590139
:100010000C9459010C9459010C9459010C945901F8
:100020000C9459010C945C0B0C945C0B0C945C0BC1
:100030000C9459010C9459010C9459010C945901D8
:100040000C9459010C94E70D0C9459010C9459012E
:100050000C9459010C9459010C9459010C94C30B44
:100060000C9459010C94330D0C94090D0C94590106
:100070000C9459010C9459010C9459010C94590198
:100080000C94B90D0C9459010C9459010C9459011C
:100090000C94DF0C0C94B50C0C9459010C94590180
:1000A0000C9459010C9459010C948B0D0C9459012A
:1000B0000C9459010C9459010C9459010C945D0D48
:1000C0000C9459010C9459010C9459010C948B0C0B
:1000D0000C94610C0C9459010C94370C0C940D0C7D
:1000E0000C9459010C94D9020C9428040C945904D2
:1000F0000C941E050C94F1020C94CC020C94E702B3
:100100000C94EB020C9403030C94B2020C94F902CD
:100110000C944B040C94F5020C94D0020C94AD0298
:100120000C94DD020C94C8020C94300E0C9437042D
:100130000C94D1040C94C4020C94E3020C94E203DA
:100140000C94FF020C94D30200002100240027002D
:100150002A002D00300033000101000004010701D6
:100160000A0100002200250028002B002E0031008B
:10017000340002010000050108010B010505050519
:10018000070508080808020202020A0A080804040F
:10019000040401010101010101010303030303033D
:1001A0000303040707070C0C0C0C0C0C0C0C0202CC
:1001B000020206060606060606060B0B0B0B0B0BC9
:1001C0000B0B010210202008081020401020408056
:1001D000020102010804020101020408102040800B
:1001E0008040201008040201800402018040201099
:1001F00008040201080402010102040810204080E2
:10020000010204081020408000000A0B02090C0DB6
:100210000E080703040100000000000000000000B9
:1002200000000000000000000000000000000000CE
:10023000000000001211100000000000000000008B
:100240000000000000000000000000000000300E70
:1002500011241FBECFEFD1E2DEBFCDBF00E00CBF47
:1002600012E0A0E0B2E0E8ECF6E300E00BBF02C071
:1002700007900D92A033B107D9F725E0A0E3B2E0D3
:1002800001C01D92AB39B207E1F711E0C8E2D1E03D
:1002900000E006C021970109802FFE010E94171976
:1002A000C732D10780E00807A9F70E94A00F0C947D
:1002B000621B0C940000CF93DF93EC019A01AB0119
:1002C000E889F98982E08083211581EE38074105AC
:1002D000510581F160E079E08DE390E00E94DA1849
:1002E0002150310941095109569547953795279570
:1002F000EC85FD851082EE85FF852083188EEC89C4
:10030000FD8986E08083EA89FB8980818061808322
:10031000EA89FB89808188608083EA89FB89808102
:1003200080688083EA89FB8980818F7D8083DF916B
:10033000CF910895E889F989108220E1D9CFE09121
:10034000DA02F091DB02E817F90769F4A389B489AE
:100350009C918589809589238C931092DB02109261
:10036000DA0281E0089580E00895CF93DF93EC01F5
:100370009A01AB011B8E1A8E198E188E1F8A1E8A47
:1003800060E079E08DE390E00E94A818C90103972E
:100390009D8F8C8F8C8596EF980F943048F06EEC83
:1003A000680F643028F062EC680F683008F065C0B0
:1003B000B901769567956431710508F481C0635180
:1003C00071097F8B6E8BB90165507109798F688FC8
:1003D000B901660F771F260F371F3695279536957B
:1003E00027952C5031093B8F2A8F943050F02EECFA
:1003F000280F243030F022EC280FF0E0E0E0283025
:1004000010F4E8E6F0E02081943028F032EC380F68
:10041000383008F458C031E0232B943048F09EEC7B
:10042000980F943028F08E53F0E0E0E0883010F41C
:10043000E8E6F0E020832C8536EF320F343008F404
:1004400044C08EEC820F843008F43FC082EC820FEF
:10045000883008F43DC090E080E09C8B8B8B34307A
:10046000D0F52650330B81E001C0880F2A95EAF7BA
:100470008D8B8C8D9D8D0197F1F78A8D9B8D892BAE
:10048000E1F08091DA029091DB02C817D907A9F058
:10049000009711F00E949F018E8D8E7F8E8F10929B
:1004A000D9021092D802D093DB02C093DA02EB8912
:1004B000FC8980819D89892B8083DF91CF9108956C
:1004C00061E070E07ECF34E0A7CF8BE690E0C5CF4F
:1004D0008DE690E0C2CF88E0223351F284E02333EE
:1004E00039F282E0243321F282EC820F883018F452
:1004F0002E53330BB8CF81E0BBCF282F30E0F9016A
:10050000E85FFD4F9491F901EE53FE4F449124585A
:100510003E4FF9012491222309F435C0992311F1AA
:1005200091509231F8F4E92FF0E08827E556FD4F1D
:100530008F4F0C941719CC02D002AD02C402C8022E
:10054000B202D302D902DD02E302E702EB02F102BA
:10055000F502B202F902FF020303809180008F7757
:1005600080938000E22FF0E0EE0FFF1FEE59FE4F68
:10057000A591B4918FB7F894EC91611148C0409562
:100580004E234C938FBF0895809180008F7DE8CFDC
:1005900080918000877FE4CF84B58F7784BDE2CFE0
:1005A00084B58F7DFBCF8091B0008F778093B000B2
:1005B000D9CF8091B0008F7DF9CF809190008F7757
:1005C00080939000CFCF809190008F7DF9CF809164
:1005D0009000877FF5CF8091A0008F778093A00057
:1005E000C1CF8091A0008F7DF9CF8091A000877F3F
:1005F000F5CF809120018F7780932001B3CF809138
:1006000020018F7DF9CF80912001877FF5CF4E2B80
:10061000B8CFCF93DF9390E0FC01EE53FE4F2491CF
:1006200084589E4FFC0184918823D1F090E0880F7C
:10063000991FFC01E85BFE4FA591B491FC01EE59B6
:10064000FE4FC591D49161110EC09FB7F8948C9163
:10065000E22FE0958E238C932881E223E8839FBFCD
:10066000DF91CF9108958FB7F894EC91E22BEC9342
:100670008FBFF6CF3FB7F8948091D4029091D50206
:10068000A091D602B091D70226B5A89B05C02F3FF6
:1006900019F00196A11DB11D3FBFBA2FA92F982FA8
:1006A0008827BC01CD01620F711D811D911D42E0A3
:1006B000660F771F881F991F4A95D1F708958F926B
:1006C0009F92AF92BF92CF92DF92EF92FF924B0137
:1006D0005C010E943A036B017C010E943A036C1991
:1006E0007D098E099F09683E734081059105A8F335
:1006F00021E0821A9108A108B10888EEC80E83E0B3
:10070000D81EE11CF11C81149104A104B10429F745
:10071000FF90EF90DF90CF90BF90AF909F908F9021
:1007200008952FB7F8946091D0027091D102809112
:10073000D2029091D3022FBF08958F929F92AF92D1
:10074000BF92EF92FF920F931F93CF93DF93EC0131
:100750007B0110E000E00E949103688779878A8717
:100760009B87E881F9810284F385E02DCE011995FC
:1007700097FF1FC00E94910388849984AA84BB8438
:10078000681979098A099B098C809D80AE80BF8099
:10079000681579058A059B0520F3C801DF91CF9183
:1007A0001F910F91FF90EF90BF90AF909F908F900F
:1007B0000895F70181937F010F5F1F4F08321105E4
:1007C00051F6EBCFAF92BF92CF92DF92EF92FF92B2
:1007D0000F931F93CF93DF936C017B018B01040F69
:1007E000151FEB015E01AE18BF08C017D10759F005
:1007F0006991D601ED91FC910190F081E02DC60147
:100800001995892B79F7C501DF91CF911F910F9130
:10081000FF90EF90DF90CF90BF90AF900895FC01D4
:10082000A089B1898C91A689B78982FD0FC09C915E
:10083000818D8F5F8F73228D821749F0A18DAE0F4E
:10084000BF2FB11D5D969C93818F08958C91089563
:10085000FC01538D448D252F30E0842F90E0821BC6
:10086000930B541710F0CF96089501970895FC014B
:10087000918D828D981761F0A28DAE0FBF2FB11DA3
:100880005D968C91928D9F5F9F73928F90E00895FB
:100890008FEF9FEF0895FC01918D828D981731F0B5
:1008A000828DE80FF11D858D90E008958FEF9FEF09
:1008B0000895FC01918D228D892F90E0805C9F4FDF
:1008C000821B91098F73992708958CED92E00E9405
:1008D000590421E0892B09F420E0822F089589E74B
:1008E00093E00E94590421E0892B09F420E0822F33
:1008F000089586E194E00E94590421E0892B09F4CF
:1009000020E0822F089583EB94E00E94590421E0B7
:10091000892B09F420E0822F0895CF93DF93EC0117
:10092000E881F9810680F781E02D1995EA89FB8934
:1009300080818F7E8083EA89FB898081877F8083A5
:10094000EA89FB8980818F778083EA89FB898081AE
:100950008F7D80838A8D898FDF91CF910895FC01EF
:10096000A48DA80FB92FB11DA35ABF4F2C91848D10
:1009700090E001968F739927848FA689B7892C936D
:10098000A089B1898C91837080648C93938D848DC0
:10099000981306C00288F389E02D80818F7D8083C3
:1009A0000895EF92FF920F931F93CF93DF93EC0183
:1009B00081E0888F9B8D8C8D98131AC0E889F98906
:1009C000808185FF15C09FB7F894EE89FF89608309
:1009D000E889F98980818370806480839FBF81E08A
:1009E00090E0DF91CF911F910F91FF90EF900895CC
:1009F000F62E0B8D10E00F5F1F4F0F731127E02EA7
:100A00008C8D8E110CC00FB607FCFACFE889F989DE
:100A1000808185FFF5CFCE010E94AF04F1CFEB8D31
:100A2000EC0FFD2FF11DE35AFF4FF0829FB7F894B2
:100A30000B8FEA89FB8980818062CFCFCF93DF93D0
:100A4000EC01888D8823B9F0AA89BB89E889F989E6
:100A50008C9185FD03C0808186FD0DC00FB607FC1B
:100A6000F7CF8C9185FFF2CF808185FFEDCFCE014E
:100A70000E94AF04E9CFDF91CF91089580E090E02C
:100A8000892B29F00E94830481110E94000080E0DC
:100A900090E0892B29F00E94790481110E940000C6
:100AA00080E090E0892B29F00E946F0481110E9460
:100AB000000080E090E0892B29F00E9465048111FC
:100AC0000C9400000895CF92DF92EF92FF92CF93A3
:100AD000DF93EC01603282E07807CCF5653B71056D
:100AE00014F064EB70E0898128E830E0281B3109BC
:100AF00087FD3395220F331F220F331F6901330FF8
:100B0000EE08FF088A8128E532E0281B310987FDBD
:100B10003395220F331F220F331F032E000C440B7B
:100B2000550B2C193D094E095F09DB0177FF02C007
:100B3000B0E0A0E00E94D21824EB30E040E050E0AA
:100B40000E94A818C20ED31EE41EF51EB601E8814D
:100B5000E03370F5298188E890E0821B910927FD38
:100B60009395880F991F880F991F681779077CF054
:100B70002A8188E592E0821B910927FD9395880FD1
:100B8000991F880F991F681779070CF4CB010297FA
:100B9000880F991F4FB7F8942E2F30E0F901EE0F10
:100BA000FF1FE20FF31FEB5CFD4F928381834FBF6A
:100BB000DF91CF91FF90EF90DF90CF9008951F933A
:100BC000CF93DF93EC01162F8881803308F04EC05D
:100BD00061E0812F0E9409038881282F30E0F9010C
:100BE000EE0FFF1FE20FF31FEB5CFD4F1F736081E1
:100BF000607C612B608319821A822CE0622F0E9434
:100C00000B19829FB001112430E020E0AB01420FAC
:100C1000531FFA01EE0FFF1FE40FF51FEB5CFD4FB2
:100C2000908196FD16C02F5F3F4F2C30310571F734
:100C3000813009F51092800082E08093810010924B
:100C4000850010928400B19A80916F008260809339
:100C50006F00E8818E2F90E0FC01EE0FFF1FE80F80
:100C6000F91FEB5CFD4F8081806480838881DF9178
:100C7000CF911F910895823061F41092900080937B
:100C80009100109295001092940088BB809371009F
:100C9000E0CF833069F41092A00082E08093A1003D
:100CA0001092A5001092A40089BB80937200D1CF4E
:100CB0008111CFCF1092200182E080932101109208
:100CC0002501109224018ABB80937300C2CFAF929A
:100CD000BF92CF92DF92EF92FF920F931F93CF9329
:100CE000DF936B017A01EC01C05DDD4F28813CE0B0
:100CF000389F8001399F100D1124A0903402B12C2F
:100D000027FF1FC0FB011182108288818F5F8883BB
:100D100088819801280F311D87FD3A95F6012A1523
:100D20003B051CF488818C30C4F18081918104964C
:100D300080349C4908F473C0F60180819181049647
:100D400070C088819801280F311D87FD3A952A15BA
:100D50003B05DCF68881A801480F511D87FD5A9597
:100D6000FA01EE0FFF1FE40FF51FEB5CFD4F8081D2
:100D700086FFCBCF8881F801E80FF11D87FDFA953A
:100D8000CF01EE0FFF1FE80FF91FEB5CFD4F8081D5
:100D900060E08F730E947D02B8CF808191812881AD
:100DA000A801420F511D27FD5A959A01FA01EE0F35
:100DB000FF1FE20FF31FEB5CFD4F21813281820F99
:100DC000931FF7019183808388819801280F311D3B
:100DD00087FD3A95F901EE0FFF1FE20FF31FEB5C61
:100DE000FD4F808186FF22C08881080F111D87FD7D
:100DF0001A95F801EE0FFF1FE00FF11FEB5CFD4F9E
:100E0000808161E08F73DF91CF911F910F91FF90EF
:100E1000EF90DF90CF90BF90AF900C947D0280E474
:100E20009CE9F701918380838FEF8883DF91CF91D5
:100E30001F910F91FF90EF90DF90CF90BF90AF90F8
:100E40000895DC01119620E043E050E06530710523
:100E500011F044E050E0FD01E81BF90BE417F50741
:100E60001CF43D91230FF0CF860F971FFC013297A2
:100E700020830895CF93DF93EC0188819981DC0171
:100E8000ED91FC910084F185E02D19951816190655
:100E900054F488819981DC01ED91FC910284F38501
:100EA000E02D1995EACFDF91CF910895CF93DF938D
:100EB000EC0188819981DC01ED91FC910084F18540
:100EC000E02D19951816190654F488819981DC01D2
:100ED000ED91FC910284F385E02D1995EACFDF9125
:100EE000CF910895EF92FF920F931F93CF93DF93CB
:100EF0008C01EB01FC01FF968B8190E09183808354
:100F000032968C8190E09183808332968D8190E03F
:100F10009183808334968E8190E091838083329791
:100F20008F8190E091838083780182E7E80EF11C45
:100F30006885862F90E0982F88276985680F792F1C
:100F4000711D072E000C880B990B0E94AF1720E033
:100F500030E048EC52E40E948C19F7016083718301
:100F6000828393837801F6E7EF0EF11C6A85862F62
:100F700090E0982F88276B85680F792F711D072EB9
:100F8000000C880B990B0E94AF1720E030E048EC72
:100F900052E40E948C19F7016083718382839383EA
:100FA0007801FAE7EF0EF11C6C85862F90E0982F00
:100FB00088276D85680F792F711D072E000C880B0F
:100FC000990B0E94AF1720E030E048EC52E40E94F9
:100FD0008C19F701608371838283938334968E85A5
:100FE00090E0982F88272F85820F911D9183808311
:100FF0003296888990E0982F88272989820F911D41
:101000009183808332968A8990E0982F88272B8954
:10101000820F911D9183808332968C8990E0982F66
:1010200088272D89820F911D9183808332968E8926
:1010300090E0982F88272F89820F911D91838083BC
:10104000DF91CF911F910F91FF90EF9008950F9333
:101050001F93CF93DF9300D000D0CDB7DEB78C01C4
:101060001E821D828DEF898386E08A838DE78B83C4
:101070008EEF8E83D8011E968C918C8366E070E093
:10108000CE0101960E942107F80183AD94ADDC01E9
:10109000ED91FC910280F381E02D46E050E0BE012D
:1010A0006F5F7F4F199526960FB6F894DEBF0FBE7F
:1010B000CDBFDF91CF911F910F9108950F931F9393
:1010C000CF93DF9300D000D0CDB7DEB78C011E8266
:1010D0001D828DEF898386E08A838EE78B838EEF76
:1010E0008E83D8011C968C918C8366E070E0CE01D3
:1010F00001960E942107F80183AD94ADDC01ED91CA
:10110000FC910280F381E02D46E050E0BE016F5F6C
:101110007F4F199526960FB6F894DEBF0FBECDBF50
:10112000DF91CF911F910F9108950F931F93CF934C
:10113000DF9300D000D0CDB7DEB78C011E821D82B8
:101140008DEF898386E08A838DE78B838EEF8E8394
:10115000D8011E968C918C8366E070E0CE010196DA
:101160000E942107F80183AD94ADDC01ED91FC9163
:101170000280F381E02D46E050E0BE016F5F7F4FBB
:10118000199526960FB6F894DEBF0FBECDBFDF913E
:10119000CF911F910F9108950F931F93CF93DF93DA
:1011A00000D000D0CDB7DEB78C011E821D828DEF3E
:1011B000898386E08A838EE78B838EEF8E83D801C6
:1011C0001C968C918C8366E070E0CE0101960E94A3
:1011D0002107F80183AD94ADDC01ED91FC91028013
:1011E000F381E02D46E050E0BE016F5F7F4F19951F
:1011F00026960FB6F894DEBF0FBECDBFDF91CF911C
:101200001F910F9108953F924F925F926F927F923C
:101210008F929F92AF92BF92CF92DF92EF92FF9206
:101220000F931F93CF93DF93EC018B016A01FC01B5
:10123000EF5BFF4FDB0113968C91139790E0918346
:101240008083329614968C91149790E091838083DA
:10125000349615968C91159790E091838083329700
:1012600016968C9190E0918380837E01BCE6EB0E14
:10127000F11CF70110821182128213825B01F8E0E7
:10128000AF0EB11C4B018FE0880E911CD5013D9033
:101290005D0120E030E040E251E4F70160817181BE
:1012A000828193810E94EA172B013C01632D70E03B
:1012B00090E080E00E94AF179B01AC01C301B20136
:1012C0000E942019D7016D937D938D939C93139762
:1012D000A814B904D9F620E030E048EC52E40E94AA
:1012E0008C199B01AC01F701208331834283538326
:1012F000D80117968C9181110AC060E070E0CB0193
:101300000E941F19F7016083718382839383FE011A
:10131000E55AFF4F81E1DF011D928A95E9F7B1E1BE
:10132000CB1AD108C059DF4FD982C882D40190E0CE
:1013300080E08C159D0524F42D9121930196F9CF21
:10134000DF91CF911F910F91FF90EF90DF90CF90A1
:10135000BF90AF909F908F907F906F905F904F90D5
:101360003F900895DC01DE961C921E92DD97FC01F1
:10137000FF9611821082329611821082329611826B
:101380001082329611821082329611821082B596A6
:101390001082118212821382349611821082329648
:1013A000108211821282138234961082118212826C
:1013B0001382349610821182128213823496118223
:1013C00010823296118210823296118210823296E9
:1013D00011821082329611821082E557F10928E2BB
:1013E000DF011D922A95E9F7FA9620E1DF011D92AF
:1013F0002A95E9F7855A9F4F21E1FC0111922A9520
:10140000E9F70895FB0101900020E9F73197AF015A
:10141000461B570BDC01ED91FC910280F381E02D1E
:1014200019948F929F92AF92BF92CF92DF92EF92D8
:10143000FF920F931F93CF93DF93CDB7DEB7A197A2
:101440000FB6F894DEBF0FBECDBF6C01990FEE084A
:10145000FF08F7FE4BC06DE283EB94E00E94D104DD
:101460008C0122273327A9012C193D094E095F0958
:1014700019A2CE0181967C019AE0892E912CA12C93
:10148000B12CCA01B901A50194010E94DA18605D6E
:10149000F70162937F01211531054105510589F757
:1014A00090E080E0309729F0BF0183EB94E00E9448
:1014B000020A080F191F6DE172E083EB94E00E94AD
:1014C000020A800F911FA1960FB6F894DEBF0FBEDF
:1014D000CDBFDF91CF911F910F91FF90EF90DF90E3
:1014E000CF90BF90AF909F908F900895A7019601E5
:1014F00019A28E010F5D1F4F8AE0C82ED12CE12C5E
:10150000F12CCA01B901A70196010E94DA18605DA9
:10151000F80162938F01211531054105510589F7C5
:10152000309739F0BF0183EB94E00E94020A8C01EE
:10153000C2CF10E000E0BFCFCF93DF93EC018BADC3
:101540009CAD0E949F0162E370E080E090E00E9409
:101550005F0340E052EC61E070E08BAD9CAD0E9417
:10156000B50160E272E08BAD9CAD0E94020A60E2C0
:1015700072E08BAD9CAD0E94020A60E272E08BAD1E
:101580009CAD0E94020A8BAD9CADDC01ED91FC91FB
:101590000680F781E02D199562E370E080E090E02D
:1015A0000E945F03CE01CB960E943A078BAD9CADA3
:1015B0000E949F0162E370E080E090E00E945F0380
:1015C00040E056E960E070E08BAD9CAD0E94B50153
:1015D000EBADFCAD82E390E0A0E0B0E084839583C6
:1015E000A683B7831A82188219821C821B821E82EC
:1015F0001D82DF91CF910895CF93DF93EC018BADE6
:101600009CAD0E948D0462E370E080E090E00E9457
:101610005F0340E052EC61E070E08BAD9CAD0E9456
:101620005B0160E272E08BAD9CAD0E94020A60E259
:1016300072E08BAD9CAD0E94020A60E272E08BAD5D
:101640009CAD0E94020A8BAD9CADDC01ED91FC913A
:101650000680F781E02D199562E370E080E090E06C
:101660000E945F03CE01CB960E9456078BAD9CADC6
:101670000E948D0462E370E080E090E00E945F03CE
:1016800040E056E960E070E08BAD9CAD0E945B01EC
:10169000EBADFCAD82E390E0A0E0B0E08483958305
:1016A000A683B7831A82188219821C821B821E822B
:1016B0001D82DF91CF9108951F920F920FB60F9266
:1016C00011240BB60F922F933F938F939F93AF9359
:1016D000BF93CF93DF93EF93FF93E091DA02F09102
:1016E000DB02309749F0A685B7859585868D81FF09
:1016F00014C08C918923A1F4FF91EF91DF91CF91D8
:10170000BF91AF919F918F913F912F910F900BBE01
:101710000F900FBE0F901F9018958C91892361F741
:10172000A389B4899C918589809589238C93868926
:1017300097890197F1F7208D318DC685D78588E08F
:10174000D9011197F1F798818150D1F78091D90291
:1017500090E001968F7399272091D802281779F08D
:101760009091D9028093D902828D938D0197F1F7E0
:10177000A389B4898C919589892B8C93BDCF868D53
:101780008160868FF1CF1F920F920FB60F921124B6
:101790002F933F938F939F93AF93BF938091D002EA
:1017A0009091D102A091D202B091D3023091CF0298
:1017B00023E0230F2D3758F50196A11DB11D20936D
:1017C000CF028093D0029093D102A093D202B09323
:1017D000D3028091D4029091D502A091D602B0910B
:1017E000D7020196A11DB11D8093D4029093D5021A
:1017F000A093D602B093D702BF91AF919F918F91E2
:101800003F912F910F900FBE0F901F90189526E8D3
:10181000230F0296A11DB11DD2CF1F920F920FB6BA
:101820000F9211240BB60F922F933F934F935F9318
:101830006F937F938F939F93AF93BF93EF93FF9398
:101840008CED92E00E94AF04FF91EF91BF91AF91B8
:101850009F918F917F916F915F914F913F912F91C8
:101860000F900BBE0F900FBE0F901F9018951F92F8
:101870000F920FB60F9211240BB60F922F933F9336
:101880004F935F936F937F938F939F93AF93BF9388
:10189000EF93FF938CED92E00E940F04FF91EF9184
:1018A000BF91AF919F918F917F916F915F914F9178
:1018B0003F912F910F900BBE0F900FBE0F901F9076
:1018C00018951F920F920FB60F9211240BB60F921C
:1018D0002F933F934F935F936F937F938F939F9338
:1018E000AF93BF93EF93FF9389E793E00E94AF0418
:1018F000FF91EF91BF91AF919F918F917F916F91E8
:101900005F914F913F912F910F900BBE0F900FBEA3
:101910000F901F9018951F920F920FB60F921124DF
:101920000BB60F922F933F934F935F936F937F93D9
:101930008F939F93AF93BF93EF93FF9389E793E0C8
:101940000E940F04FF91EF91BF91AF919F918F91F2
:101950007F916F915F914F913F912F910F900BBEAF
:101960000F900FBE0F901F9018951F920F920FB6F9
:101970000F9211240BB60F922F933F934F935F93C7
:101980006F937F938F939F93AF93BF93EF93FF9347
:1019900086E194E00E94AF04FF91EF91BF91AF9177
:1019A0009F918F917F916F915F914F913F912F9177
:1019B0000F900BBE0F900FBE0F901F9018951F92A7
:1019C0000F920FB60F9211240BB60F922F933F93E5
:1019D0004F935F936F937F938F939F93AF93BF9337
:1019E000EF93FF9386E194E00E940F04FF91EF9143
:1019F000BF91AF919F918F917F916F915F914F9127
:101A00003F912F910F900BBE0F900FBE0F901F9024
:101A100018951F920F920FB60F9211240BB60F92CA
:101A20002F933F934F935F936F937F938F939F93E6
:101A3000AF93BF93EF93FF9383EB94E00E94AF04C7
:101A4000FF91EF91BF91AF919F918F917F916F9196
:101A50005F914F913F912F910F900BBE0F900FBE52
:101A60000F901F9018951F920F920FB60F9211248E
:101A70000BB60F922F933F934F935F936F937F9388
:101A80008F939F93AF93BF93EF93FF9383EB94E078
:101A90000E940F04FF91EF91BF91AF919F918F91A1
:101AA0007F916F915F914F913F912F910F900BBE5E
:101AB0000F900FBE0F901F9018951F920F920FB6A8
:101AC0000F9211240BB60F922F933F934F935F9376
:101AD0006F937F938F939F93AF93BF93EF93FF93F6
:101AE00048E251E064E271E090E080E00E94670625
:101AF000FF91EF91BF91AF919F918F917F916F91E6
:101B00005F914F913F912F910F900BBE0F900FBEA1
:101B10000F901F9018951F920F920FB60F921124DD
:101B20000BB60F922F933F934F935F936F937F93D7
:101B30008F939F93AF93BF93EF93FF9348EA50E047
:101B400064EA70E083E090E00E946706FF91EF9105
:101B5000BF91AF919F918F917F916F915F914F91C5
:101B60003F912F910F900BBE0F900FBE0F901F90C3
:101B700018951F920F920FB60F9211240BB60F9269
:101B80002F933F934F935F936F937F938F939F9385
:101B9000AF93BF93EF93FF9348E950E064E970E09F
:101BA00082E090E00E946706FF91EF91BF91AF91B4
:101BB0009F918F917F916F915F914F913F912F9165
:101BC0000F900BBE0F900FBE0F901F9018951F9295
:101BD0000F920FB60F9211240BB60F922F933F93D3
:101BE0004F935F936F937F938F939F93AF93BF9325
:101BF000EF93FF9348E850E064E870E081E090E004
:101C00000E946706FF91EF91BF91AF919F918F91D5
:101C10007F916F915F914F913F912F910F900BBEEC
:101C20000F900FBE0F901F901895FC0190913402F9
:101C3000903398F481E0890F809334029083892F48
:101C400090E0FC01EE0FFF1FE80FF91FEB5CFD4F6A
:101C500088EB9BE09283818308958FEF80830895C2
:101C6000FF920F931F93CF93DF93CCEDD2E01B82B3
:101C70001A8248EE53E060E070E04C835D836E832F
:101C80007F838FE092E09983888325E331E03D876D
:101C90002C8724E331E03F872E8720E331E0398B26
:101CA000288B21E331E03B8B2A8B22E331E03D8B13
:101CB0002C8B26E331E03F8B2E8B198E1A8E1B8ED8
:101CC0001C8EE9E7F3E01382128244835583668316
:101CD00077839183808325ED30E03587248724ED59
:101CE00030E03787268720ED30E0318B208B21EDE7
:101CF00030E0338B228B22ED30E0358B248B26EDC8
:101D000030E0378B268B118E128E138E148EE6E107
:101D1000F4E0138212824483558366837783918330
:101D200080832DEC30E0358724872CEC30E037873A
:101D3000268728EC30E0318B208B29EC30E0338B88
:101D4000228B2AEC30E0358B248B2EEC30E0378B65
:101D5000268B118E128E138E148EE3EBF4E0138219
:101D6000128244835583668377839183808385ECD5
:101D700090E09587848784EC90E09787868780EC55
:101D800090E0918B808B81EC90E0938B828B82EC46
:101D900090E0958B848B86EC90E0978B868B118EF0
:101DA000128E138E148E0CE815E0D80111961C9239
:101DB0001E9215961C921E9214978FE090E0189632
:101DC0009C938E9317978EE090E01A969C938E9337
:101DD0001997FF24F3941696FC9288E890E00E94ED
:101DE000341AFC011082118212821482138216822C
:101DF0001582178210861186128613861486158620
:101E000017861686F08A12AE11AE16AE15AEDC013C
:101E1000DF9611961C921E92129611961C921E929B
:101E2000129611961C921E92129611961C921E9258
:101E3000129611961C921E9295961D921D921D92BD
:101E40001C921397149611961C921E9212961D9234
:101E50001D921D921C92139714961D921D921D9215
:101E60001C92139714961D921D921D921C9213970B
:101E7000149611961C921E92129611961C921E9206
:101E8000129611961C921E92129611961C921E92F8
:101E9000129611961C921E92D4AFC3AFA557B109EA
:101EA00088E2ED0119928A95E9F7DA9680E1ED0171
:101EB00019928A95E9F7509681E1ED0119928A9578
:101EC000E9F7D8011396FC93EE93129789E895E011
:101ED0000E94150E86E895E00E94150E83E895E0B5
:101EE0000E94150E80E895E00E94150EE8E6F5E0E8
:101EF00080E090E0A0E8BFE380839183A283B38376
:101F000084839583A683B7834AE057ED63E27CE33D
:101F10004087518762877387E0E5F5E0808391838E
:101F2000A283B38384839583A683B7834087518735
:101F300062877387DF91CF911F910F91FF90089572
:101F4000CF93DF93CDB7DEB7E0970FB6F894DEBF3F
:101F50000FBECDBF789484B5826084BD84B58160A6
:101F600084BD85B5826085BD85B5816085BD809164
:101F70006E00816080936E001092810080918100DC
:101F800082608093810080918100816080938100D4
:101F9000809180008160809380008091B100846096
:101FA0008093B1008091B00081608093B0008091F7
:101FB0009100826080939100809191008160809374
:101FC0009100809190008160809390008091A100A9
:101FD00082608093A1008091A10081608093A10024
:101FE0008091A00081608093A00080912101826097
:101FF0008093210180912101816080932101809152
:10200000200181608093200180917A008460809318
:102010007A0080917A00826080937A0080917A00C1
:10202000816080937A0080917A00806880937A0042
:102030001092C10062E070E089E895E00E94DF053F
:102040006AE070E080E090E00E945F0363E070E08F
:1020500086E895E00E94DF056AE070E080E090E0AD
:102060000E945F0366E070E083E895E00E94DF0570
:102070006AE070E080E090E00E945F03809192054A
:10208000882309F405C100918E0510918F0540E069
:1020900056E960E070E0D801DB968D919C910E943A
:1020A0005B01D801DB96ED91FC9182E390E0A0E02A
:1020B000B0E084839583A683B783F80112821082EF
:1020C0001182148213821682158280919205E0910A
:1020D0008E05F0918F05811104C0E0919005F0917B
:1020E000910581E090E097878687108A6AE070E02A
:1020F00080E090E00E945F0340E855E260E070E01D
:1021000083EB94E00E945B018AE590E09093CA0221
:102110008093C9029093C8028093C7029093C6022D
:102120008093C5026AE570E089E895E00E94630546
:102130006AE570E086E895E00E9463056AE570E074
:1021400083E895E00E946305CE0101961C0160E0E2
:10215000809193050E94090361E0809195050E949A
:10216000090380919205882309F44DC400918E05DE
:1021700010918F0528019BE3490E511C7801A1E1C4
:10218000EA0EF11CF801E75BFF4FFAA7E9A7C801C7
:10219000CF969EA78DA7D8011B968C91882309F412
:1021A00086C0C8010E94CC08D8011C968C911C974F
:1021B00081110AC050968C91811106C0C8010E94FD
:1021C000950881E0F801808BD8011C968C918823BA
:1021D00031F0C2010E945607C8010E949508C8014B
:1021E0000E94B209F8018485882371F0D801DB963A
:1021F0008D919C91DC01ED91FC910084F185E02DA5
:1022000019951816190694F7F80183AD94ADDC0101
:10221000ED91FC910084F185E02D199518161906B1
:102220000CF045C1F10188E211928A95E9F7B101FC
:10223000D801DB968D919C910E949D034C010097E3
:1022400009F435C1D12CC12CFC013197F8ABEFA7B3
:10225000C814D90494F4B1016C0D7D1DDB018C917F
:102260003601BFEF6B1A7B0A8D3F09F06BC1EFA5FA
:10227000F8A9CE16DF0609F002C1D80115968D9196
:102280009C911697019616969C938E9315970FC165
:10229000009190051091910540E056E960E070E0F2
:1022A000D801DB968D919C910E94B501FACEF80180
:1022B0008081811179CF8281811185C068EB7BE0BB
:1022C00080E090E00E945F0381E0D80112968C9339
:1022D000F8018381948106978CF0C8010E94FC0A62
:1022E000D80111961C92119714961C921E92139766
:1022F00060ED77E080E090E00E945F03F80181816B
:1023000081113BC085E0E6E0F2E0D10101900D9241
:102310008A95E1F765E070E0C1010E942107D801CC
:10232000DB968D919C91DC01ED91FC910280F38113
:10233000E02D45E050E0B101199564EF71E080E0D7
:1023400090E00E945F03C2010E94560789E78B83D9
:1023500065E070E0C1010E942107F80183AD94ADF2
:10236000DC01ED91FC910280F381E02D45E050E02D
:10237000B101199581E0F8018183D801DB968D9137
:102380009C91DC01ED91FC910084F185E02D199583
:10239000F801181619068CF41182D801DB968D917C
:1023A0009C91DC01ED91FC910284F385E02D19955F
:1023B0008D3F81F08F3F89F7F801838194810196E9
:1023C000948383837EC068EE73E080E090E00E9497
:1023D0005F037ECFD12CC12CAA24A394B12CD801A9
:1023E000DB968D919C91DC01ED91FC910284F3854B
:1023F000E02D19958E3F71F18F3FC1F461E070E0DF
:1024000080E090E00E945F03BFEFCB1ADB0AEBE0B5
:10241000CE16D10424F3D80113968D919C91149774
:10242000019614969C938E9313974BC08D3F79F031
:10243000B4E0AB16B1040CF0BFCFF101EA0DFB1D07
:102440008083C50101965C01D12CC12CC8CFB12C71
:10245000A12CF3CFF101EA0DFB1D80838B81803E1F
:10246000D1F6DD24D394D801DC921D968C91811194
:102470009BCEC8010E94CC08F801D58695CE3601C6
:10248000BFEF6B1A7B0AF101E60DF71D8081A82EC4
:10249000B12C893230F4C4018C199D098A159B0531
:1024A0009CF4F80185819681019696838583F801D5
:1024B000858196814F972CF016821582C8010E9463
:1024C000FC0A0E943E0543CED701E8E21D92EA9540
:1024D000E9F7A501C7010E94591B31E020E0A501E1
:1024E00042505109832F90E0841795073CF48E0DDC
:1024F0009F1DDC018C91280F3F5FF4CFF701EA0D9F
:10250000FB1D3297808128131FC0F80116821582A7
:10251000B2AEA1AE83898634E9F48489882361F060
:1025200090E0A9A5BAA58D939C930E949103F80110
:102530006783708781879287D801D9966D907C9048
:102540006C0C7D1C630184CEF70188E211928A95A0
:10255000E9F7F8CF90E096AF85AF009709F4B1CFD7
:102560008031910529F5EF5BFF4FD80154968C918E
:10257000549790E091838083329655968C9155972D
:1025800090E091838083BD97A55BBF4F8DE0E80EFF
:10259000F11C819190E08D939D93EE16FF06C9F793
:1025A000F801E75BFF4FA1E0B0E0B183A08318C062
:1025B0008131910569F4A501B701C8010E940309A1
:1025C000F801E75BFF4F81E090E09183808308C0D2
:1025D0008A30910509F0D2C1B701C8010E94720783
:1025E00067E272E083EB94E00E94020A8091920518
:1025F000E0918E05F0918F05811104C0E091900566
:10260000F0919105EF5BFF4F808191810E94110A4B
:102610006AE272E083EB94E00E94020A80919205E4
:10262000E0918E05F0918F05811104C0E091900535
:10263000F0919105ED5BFF4F808191810E94110A1D
:102640006DE272E083EB94E00E94020A80919205B1
:10265000E0918E05F0918F05811104C0E091900505
:10266000F0919105E95BFF4F808191810E94110AF1
:102670006FE172E083EB94E00E94020A6DE172E088
:1026800083EB94E00E94020AF0919205FDA7FF23DC
:1026900009F403C4E0918E05F0918F05EF5BFF4FC5
:1026A000E080F18080916C0590916D05A0916E05A0
:1026B000B0916F0589A79AA7ABA7BCA72091680521
:1026C0003091690540916A0550916B05BC01CD01BF
:1026D0000E9420199B01AC0169A57AA58BA59CA538
:1026E0000E948C194B015C0180927C0590927D05C3
:1026F000A0927E05B0927F054090780550907905B4
:1027000060907A0570907B05B701FF0C880B990BE0
:102710000E94AF17A30192010E941F19A501940105
:102720000E94EA17A30192010E9420196B017C010B
:10273000C0927405D0927505E0927605F092770507
:10274000AC019B01C301B2010E941F199F77209128
:1027500070053091710540917205509173050E948A
:10276000EA172B013C01A501940160E070E080E8CC
:102770009FE30E941F1929A53AA54BA55CA50E94BD
:10278000EA179B01AC01C301B2010E9420196093BA
:102790006C0570936D0580936E0590936F05C092E4
:1027A0007805D0927905E0927A05F0927B05C70111
:1027B000B6010E94FE198B017093CE026093CD0288
:1027C0009DA5E0918E05F0918F05911104C0E091D7
:1027D0009005F0919105ED5BFF4FE080F1808091D5
:1027E000540590915505A0915605B091570589A7BC
:1027F0009AA7ABA7BCA720915005309151054091F5
:10280000520550915305BC01CD010E9420199B0136
:10281000AC0169A57AA58BA59CA50E948C194B01DA
:102820005C018092640590926505A0926605B09265
:10283000670540906005509061056090620570905A
:102840006305B701FF0C880B990B0E94AF17A3011A
:1028500092010E941F19A50194010E94EA17A30189
:1028600092010E9420196B017C01C0925C05D092FC
:102870005D05E0925E05F0925F05AC019B01C3012E
:10288000B2010E941F199F77209158053091590578
:1028900040915A0550915B050E94EA172B013C01BB
:1028A000A501940160E070E080E89FE30E941F1999
:1028B00029A53AA54BA55CA50E94EA179B01AC018E
:1028C000C301B2010E94201960935405709355050D
:1028D0008093560590935705C0926005D09261058C
:1028E000E0926205F0926305C701B6010E94FE19ED
:1028F0009B017093CC026093CB029DA5E0918E0565
:10290000F0918F05911104C0E0919005F09191052F
:1029100085AD96AD019709F0D4CDFF968081918168
:10292000019709F0CECD023311050CF4BEC280919F
:10293000C9029091CA020597843B91050CF0B2C27E
:102940009093CA028093C9026091C9027091CA0231
:1029500089E895E00E9463058091C7029091C802C2
:10296000823491050CF0E5C24996181619060CF050
:10297000D3C29093C6028093C502D2C2D8012489E3
:1029800030E08231910539F5322F222755968C910E
:102990005597280F311DEDA5FEA531832083F80141
:1029A000EF5BFF4F56968C91569790E09183808312
:1029B000329657968C91579790E091838083349606
:1029C00058968C91589790E09183808332975996CE
:1029D0008C9190E0FACDEDA5FEA53183208386345D
:1029E000910509F03EC22115310509F4D4CBA9A502
:1029F000BAA52D933C930E949103F80167837087D9
:102A000081879287C4CB0091900510919105280190
:102A1000FBE34F0E511C780181E1E80EF11CD80157
:102A2000A75BBF4FBAA7A9A7F801FF96FEA7EDA71E
:102A3000D8011B968C91882309F477C0C8010E94A5
:102A40005E08D8011C968C911C9781110AC0509683
:102A50008C91811106C0C8010E94270881E0F8010D
:102A6000808BD8011C968C91882331F0C2010E9482
:102A70003A07C8010E942708C8010E94B209F8015C
:102A80008485882371F0D801DB968D919C91DC01BF
:102A9000ED91FC910084F185E02D19951816190629
:102AA00094F7F80183AD94ADDC01ED91FC910084C5
:102AB000F185E02D1995181619060CF02AC1F101BF
:102AC00088E211928A95E9F7B101D801DB968D91E0
:102AD0009C910E949D034C01009709F41AC1D12CCE
:102AE000C12CFC013197F8ABEFA7C814D90494F4BA
:102AF000B1016C0D7D1DDB018C913601BFEF6B1AAE
:102B00007B0A8D3F09F04FC1EFA5F8A9CE16DF066D
:102B100009F0E7C0D80115968D919C911697019602
:102B200016969C938E931597F4C0F80180818111BD
:102B300088CF8281811181C068EB7BE080E090E0EA
:102B40000E945F0381E0D80112968C93F801838183
:102B5000948106978CF0C8010E949C0AD8011196B6
:102B60001C92119714961C921E92139760ED77E0B9
:102B700080E090E00E945F03F801818181113BC0F9
:102B800085E0E6E0F2E0D10101900D928A95E1F74F
:102B900065E070E0C1010E942107D801DB968D91AC
:102BA0009C91DC01ED91FC910280F381E02D45E0E8
:102BB00050E0B101199564EF71E080E090E00E946F
:102BC0005F03C2010E943A0789E78B8365E070E0EA
:102BD000C1010E942107F80183AD94ADDC01ED91A4
:102BE000FC910280F381E02D45E050E0B1011995A0
:102BF00081E0F8018183D801DB968D919C91DC0105
:102C0000ED91FC910084F185E02D1995F8011816DD
:102C100019060CF0D2CB1182D801DB968D919C91D4
:102C2000DC01ED91FC910284F385E02D19958D3F37
:102C300059F08F3F09F4C0CBEFCF68EE73E080E02E
:102C400090E00E945F0382CFD12CC12CAA24A394D0
:102C5000B12CD801DB968D919C91DC01ED91FC911A
:102C60000284F385E02D19958E3F29F18F3F79F489
:102C700061E070E080E090E00E945F03BFEFCB1A5C
:102C8000DB0AEBE0CE16D1040CF0C5CBE2CF8D3FD2
:102C900079F0B4E0AB16B1040CF08ECBF101EA0D83
:102CA000FB1D8083C50101965C01D12CC12CD1CFC5
:102CB000B12CA12CF3CFF101EA0DFB1D80838B8198
:102CC000803E09F0A8CBDD24D394D801DC921D9678
:102CD0008C918111B6CEC8010E945E08F801D5869C
:102CE000B0CE3601BFEF6B1A7B0AF101E60DF71D7E
:102CF0008081A82EB12C893230F4C4018C199D0931
:102D00008A159B0594F4F801858196810196968336
:102D10008583F801858196814F970CF4D2CB16827A
:102D20001582C8010E949C0ACCCBD701E8E21D9213
:102D3000EA95E9F7A501C7010E94591B31E020E09F
:102D4000A50142505109832F90E0841795073CF468
:102D50008E0D9F1DDC018C91280F3F5FF4CFF70192
:102D6000EA0DFB1D3297808128131FC0F8011682DF
:102D70001582B2AEA1AE83898634E9F484898823B2
:102D800061F090E0A9A5BAA58D939C930E94910350
:102D9000F8016783708781879287D801D9966D90F3
:102DA0007C906C0C7D1C6301A0CEF70188E211922F
:102DB0008A95E9F7F8CF90E096AF85AF009709F4D0
:102DC00080CB80319105F1F4EF5BFF4FD801549631
:102DD0008C91549790E091838083329655968C9194
:102DE000559790E091838083BD97A55BBF4F8DE0A1
:102DF000E80EF11C819190E08D939D93EE16FF06F5
:102E0000C9F7CECB8131910531F4A501B701C801D5
:102E10000E940309D5CB8A30910529F4B701C80176
:102E20000E947207DDCBD801248930E08231910500
:102E300009F4AACDEDA5FEA5318320838634910542
:102E400081F42115310509F4F3CDA9A5BAA52D9377
:102E50003C930E949103F801678370878187928772
:102E6000E3CDF801EF5BFF4FD80155968C91559754
:102E700090E091838083329656968C91569790E09D
:102E800091838083349657968C91579790E09183E5
:102E90008083329758968C919CCDE0919005F0916B
:102EA0009105FCCB84EB90E04BCD0A31110574F415
:102EB0008091C9029091CA020596181619060CF461
:102EC0003FCD1092CA021092C9023ECD8091C70236
:102ED0009091C8022231310594F40596803A91050B
:102EE0005CF49093C8028093C7026091C70270910E
:102EF000C80286E895E02ECD80EA90E0F2CF2C3330
:102F000031050CF429CD05971816190654F31092C3
:102F1000C8021092C702E9CF1092C6021092C502F1
:102F20006091C5027091C60283E895E00E94630536
:102F3000C8CA8535910544F00A96843B91050CF486
:102F400018CD84EB90E015CD8AE590E09093C60211
:102F50008093C5026AE570E0E7CFE89409C097FB6B
:102F60003EF490958095709561957F4F8F4F9F4F60
:102F70009923A9F0F92F96E9BB279395F6958795A4
:102F800077956795B795F111F8CFFAF4BB0F11F467
:102F900060FF1BC06F5F7F4F8F4F9F4F16C088230E
:102FA00011F096E911C0772321F09EE8872F762F44
:102FB00005C0662371F096E8862F70E060E02AF085
:102FC0009A95660F771F881FDAF7880F9695879571
:102FD00097F908950E94FD170C946E180E946018CE
:102FE00038F00E94671820F0952311F00C945718C0
:102FF0000C945D1811240C94A2180E947F1870F391
:10300000959FC1F3950F50E0551F629FF001729F8D
:10301000BB27F00DB11D639FAA27F00DB11DAA1F9C
:10302000649F6627B00DA11D661F829F2227B00DE9
:10303000A11D621F739FB00DA11D621F839FA00D74
:10304000611D221F749F3327A00D611D231F849FC4
:10305000600D211D822F762F6A2F11249F5750401B
:103060009AF0F1F088234AF0EE0FFF1FBB1F661F96
:10307000771F881F91505040A9F79E3F510580F05F
:103080000C9457180C94A2185F3FE4F3983ED4F3C5
:10309000869577956795B795F795E7959F5FC1F703
:1030A000FE2B880F911D9695879597F9089597F9AE
:1030B0009F6780E870E060E008959FEF80EC0895DE
:1030C00000240A9416161706180609060895002407
:1030D0000A9412161306140605060895092E039481
:1030E000000C11F4882352F0BB0F40F4BF2B11F4F5
:1030F00060FF04C06F5F7F4F8F4F9F4F089557FD54
:103100009058440F551F59F05F3F71F04795880F55
:1031100097FB991F61F09F3F79F0879508951216EC
:1031200013061406551FF2CF4695F1DF08C0161698
:1031300017061806991FF1CF869571056105089449
:103140000895E894BB2766277727CB0197F9089560
:10315000052E97FB1EF400940E94BF1857FD07D060
:103160000E94DA1807FC03D04EF40C94BF18509557
:103170004095309521953F4F4F4F5F4F0895909563
:103180008095709561957F4F8F4F9F4F08950E9456
:10319000FC18A59F900DB49F900DA49F800D911DCC
:1031A00011240895B7FF0C94C7180E94C718821BFA
:1031B000930B0895A1E21A2EAA1BBB1BFD010DC0A3
:1031C000AA1FBB1FEE1FFF1FA217B307E407F507D7
:1031D00020F0A21BB30BE40BF50B661F771F881FB3
:1031E000991F1A9469F760957095809590959B0149
:1031F000AC01BD01CF010895A29FB001B39FC001F2
:10320000A39F700D811D1124911DB29F700D811D12
:103210001124911D0895991B79E004C0991F9617F8
:1032200008F0961B881F7A95C9F780950895EE0FD0
:10323000FF1F881F8BBF0790F691E02D19945058FF
:10324000BB27AA270E9437190C946E180E94601899
:1032500038F00E94671820F039F49F3F19F426F4E3
:103260000C945D180EF4E095E7FB0C945718E92FC9
:103270000E947F1858F3BA176207730784079507EF
:1032800020F079F4A6F50C94A1180EF4E0950B2E1D
:10329000BA2FA02D0B01B90190010C01CA01A001A8
:1032A0001124FF27591B99F0593F50F4503E68F103
:1032B0001A16F040A22F232F342F4427585FF3CF44
:1032C000469537952795A795F0405395C9F77EF415
:1032D0001F16BA0B620B730B840BBAF09150A1F05E
:1032E000FF0FBB1F661F771F881FC2F70EC0BA0FE4
:1032F000621F731F841F48F4879577956795B7956C
:10330000F7959E3F08F0B0CF9395880F08F0992766
:10331000EE0F9795879508950E94A0190C946E184A
:103320000E94671858F00E94601840F029F45F3F2F
:1033300029F00C94571851110C94A2180C945D1894
:103340000E947F1868F39923B1F3552391F3951BDD
:10335000550BBB27AA2762177307840738F09F5FB6
:103360005F4F220F331F441FAA1FA9F335D00E2E23
:103370003AF0E0E832D091505040E695001CCAF790
:103380002BD0FE2F29D0660F771F881FBB1F261753
:1033900037074807AB07B0E809F0BB0B802DBF012A
:1033A000FF2793585F4F3AF09E3F510578F00C94F9
:1033B00057180C94A2185F3FE4F3983ED4F3869517
:1033C00077956795B795F7959F5FC9F7880F911D1A
:1033D0009695879597F90895E1E0660F771F881F06
:1033E000BB1F621773078407BA0720F0621B730BB9
:1033F000840BBA0BEE1F88F7E09508950E94051A1A
:103400006894B1110C94A21808950E94871888F04E
:103410009F5798F0B92F9927B751B0F0E1F0660F98
:10342000771F881F991F1AF0BA95C9F714C0B130D9
:1034300091F00E94A118B1E008950C94A118672F93
:10344000782F8827B85F39F0B93FCCF38695779508
:103450006795B395D9F73EF49095809570956195F1
:103460007F4F8F4F9F4F08950F931F93CF93DF93FD
:103470008230910510F482E090E0E0919905F0919E
:103480009A0530E020E0B0E0A0E0309799F42115F3
:10349000310509F44AC0281B390B24303105D8F511
:1034A0008A819B816115710589F1FB019383828378
:1034B000FE0111C0408151810281138148175907D3
:1034C000E0F04817590799F4109761F012960C93A1
:1034D000129713961C933296CF01DF91CF911F91D3
:1034E0000F9108950093990510939A05F4CF211533
:1034F000310551F04217530738F0A901DB019A0159
:10350000BD01DF01F801C1CFEF01F9CF90939A051A
:1035100080939905CDCFFE01E20FF31F8193919324
:103520002250310939832883D7CF209197053091D4
:103530009805232B41F4209102023091030230932D
:1035400098052093970520910002309101022115E2
:10355000310541F42DB73EB7409104025091050268
:10356000241B350BE0919705F0919805E217F307BE
:10357000A0F42E1B3F0B2817390778F0AC014E5FE3
:103580005F4F2417350748F04E0F5F1F5093980583
:1035900040939705819391939FCFF0E0E0E09CCF1B
:1035A000CF93DF930097E9F0FC01329713821282E8
:1035B000A0919905B0919A05ED0130E020E01097B7
:1035C000A1F420813181820F931F209197053091C2
:1035D00098052817390709F061C0F0939805E09322
:1035E0009705DF91CF910895EA01CE17DF07E8F53F
:1035F0004A815B819E0141155105B1F7E901FB83C9
:10360000EA8349915991C40FD51FEC17FD0761F466
:10361000808191810296840F951FE90199838883A7
:10362000828193819B838A83F0E0E0E012968D9102
:103630009C9113970097B9F52D913C911197CD016D
:103640000296820F931F20919705309198052817B5
:10365000390739F6309751F510929A05109299056D
:10366000B0939805A0939705BCCFD383C2834081C4
:103670005181840F951FC817D90761F44E5F5F4FC2
:1036800088819981480F591F518340838A819B818A
:10369000938382832115310509F0B0CFF0939A0509
:1036A000E09399059ECFFD01DC01C0CF1382128209
:1036B000D7CFFB01DC0102C001900D924150504078
:0836C000D8F70895F894FFCF3C
:1036C80000009B058000FD057A00FE00000000D187
:1036D80004E20328041E05590437044B040D0A00AC
:1036E80072657365740A00783A00793A00773A008F
:00000001FF
