:100000000C9428010C9459010C9459010C94590139
:100010000C9459010C9459010C9459010C945901F8
:100020000C9459010C9459010C9459010C945901E8
:100030000C9459010C9459010C9459010C945901D8
:100040000C9459010C9467060C9459010C945901B5
:100050000C9459010C9459010C9459010C943305DA
:100060000C9459010C94A7050C947D050C9459012E
:100070000C9459010C9459010C9459010C94590198
:100080000C9439060C9459010C9459010C945901A3
:100090000C9459010C9459010C9459010C94590178
:1000A0000C9459010C9459010C940B060C945901B1
:1000B0000C9459010C9459010C9459010C94DD05D0
:1000C0000C9459010C9459010C9459010C94590148
:1000D0000C9459010C9459010C9459010C94590138
:1000E0000C9459010C94B1010C948E020C943E02B4
:1000F0000C94B7010C94C9010C9421030C94900149
:100100000C94CF010C949C020C94AA010C94AE01A7
:100110000C94D7010C94D3010C94A2010C94B0065A
:100120000C948B010C94DD010C94C1010C94A6017C
:100130000C947A020C94D4020C94BB010C94C5016B
:100140000C94E1010C946B020000210024002700B4
:100150002A002D00300033000101000004010701D6
:100160000A0100002200250028002B002E0031008B
:10017000340002010000050108010B010505050519
:10018000070508080808020202020A0A080804040F
:10019000040401010101010101010303030303033D
:1001A0000303040707070C0C0C0C0C0C0C0C0202CC
:1001B000020206060606060606060B0B0B0B0B0BC9
:1001C0000B0B010210202008081020401020408056
:1001D000020102010804020101020408102040800B
:1001E0008040201008040201800402018040201099
:1001F00008040201080402010102040810204080E2
:10020000010204081020408000000A0B02090C0DB6
:100210000E080703040100000000000000000000B9
:1002200000000000000000000000000000000000CE
:10023000000000001211100000000000000000008B
:100240000000000000000000000000000000B006F8
:1002500011241FBECFEFD1E2DEBFCDBF00E00CBF47
:1002600012E0A0E0B2E0E2E6F4E100E00BBF02C081
:1002700007900D92A231B107D9F723E0A2E1B2E0D5
:1002800001C01D92A536B207E1F711E0C8E2D1E046
:1002900000E006C021970109802FFE010E94270A75
:1002A000C732D10780E00807A9F70E94FC060C942A
:1002B0002F0A0C940000282F30E0F901E85FFD4F71
:1002C0009491F901EE53FE4F449124583E4FF901A9
:1002D0002491222309F435C0992311F191509231D0
:1002E000F8F4E92FF0E08827E758FE4F8F4F0C9481
:1002F000270AAA01AE018B01A201A6019001B1015A
:10030000B701BB01C101C501C901CF01D3019001F2
:10031000D701DD01E101809180008F77809380001B
:10032000E22FF0E0EE0FFF1FEE59FE4FA591B491C2
:100330008FB7F894EC91611148C040954E234C93CF
:100340008FBF0895809180008F7DE8CF80918000DD
:10035000877FE4CF84B58F7784BDE2CF84B58F7D6E
:10036000FBCF8091B0008F778093B000D9CF809180
:10037000B0008F7DF9CF809190008F7780939000AF
:10038000CFCF809190008F7DF9CF80919000877FB3
:10039000F5CF8091A0008F778093A000C1CF80918E
:1003A000A0008F7DF9CF8091A000877FF5CF80914D
:1003B00020018F7780932001B3CF809120018F7D22
:1003C000F9CF80912001877FF5CF4E2BB8CF3FB773
:1003D000F8948091AC029091AD02A091AE02B091E0
:1003E000AF0226B5A89B05C02F3F19F00196A11DAD
:1003F000B11D3FBFBA2FA92F982F8827BC01CD016F
:10040000620F711D811D911D42E0660F771F881FCD
:10041000991F4A95D1F708958F929F92AF92BF92FC
:10042000CF92DF92EF92FF924B015C010E94E701B5
:100430006B017C010E94E7016C197D098E099F09FF
:10044000683E734081059105A8F321E0821A910866
:10045000A108B10888EEC80E83E0D81EE11CF11C8B
:1004600081149104A104B10429F7FF90EF90DF906B
:10047000CF90BF90AF909F908F900895AF92BF9212
:10048000CF92DF92EF92FF920F931F93CF93DF9360
:100490006C017B018B01040F151FEB015E01AE188F
:1004A000BF08C017D10759F06991D601ED91FC91B1
:1004B0000190F081E02DC6011995892B79F7C501CE
:1004C000DF91CF911F910F91FF90EF90DF90CF9030
:1004D000BF90AF900895FC01538D448D252F30E0DF
:1004E000842F90E0821B930B541710F0CF96089541
:1004F00001970895FC01918D828D981761F0A28D6E
:10050000AE0FBF2FB11D5D968C91928D9F5F9F7333
:10051000928F90E008958FEF9FEF0895FC01918DE9
:10052000828D981731F0828DE80FF11D858D90E056
:1005300008958FEF9FEF0895FC01918D228D892FF3
:1005400090E0805C9F4F821B91098F7399270895DB
:1005500080EB92E00E949C0221E0892B09F420E0CC
:10056000822F0895FC01A48DA80FB92FB11DA35AA5
:10057000BF4F2C91848D90E001968F739927848FC3
:10058000A689B7892C93A089B1898C9183708064E6
:100590008C93938D848D981306C00288F389E02D87
:1005A00080818F7D80830895EF92FF920F931F9338
:1005B000CF93DF93EC0181E0888F9B8D8C8D981316
:1005C0001AC0E889F989808185FF15C09FB7F89422
:1005D000EE89FF896083E889F9898081837080646E
:1005E00080839FBF81E090E0DF91CF911F910F91B9
:1005F000FF90EF900895F62E0B8D10E00F5F1F4FC8
:100600000F731127E02E8C8D8E110CC00FB607FCD6
:10061000FACFE889F989808185FFF5CFCE010E9464
:10062000B202F1CFEB8DEC0FFD2FF11DE35AFF4F1E
:10063000F0829FB7F8940B8FEA89FB8980818062F2
:10064000CFCFCF93DF93EC01888D8823B9F0AA89AF
:10065000BB89E889F9898C9185FD03C0808186FD7D
:100660000DC00FB607FCF7CF8C9185FFF2CF8081CC
:1006700085FFEDCFCE010E94B202E9CFDF91CF918D
:10068000089580E090E0892B29F00E94A802811152
:100690000E94000080E090E0892B49F080E090E02B
:1006A000892B29F00E94000081110E94000080E047
:1006B00090E0892B49F080E090E0892B29F00E949E
:1006C000000081110E94000080E090E0892B49F039
:1006D00080E090E0892B29F00E94000081110C94A9
:1006E000000008958F929F92AF92BF92FF920F9356
:1006F0001F93CF93DF93FC01F0808FE28F1508F4F6
:100700004AC0828108E512E0081B110987FD139594
:10071000000F111F000F111F8181C8E8D0E0C81B16
:10072000D10987FDD395CC0FDD1FCC0FDD1F4E0106
:100730000D2E000CAA08BB089801012E000C440BDA
:10074000550B281939094A095B09DB010E94E209A6
:1007500024EB30E040E050E00E94B809820E931E86
:10076000A41EB51E8C169D062CF0E801801691067D
:100770000CF4E4012297CC0FDD1F2FB7F8948F2DD6
:1007800090E0FC01EE0FFF1FE80FF91FE95EFD4F3F
:10079000D283C1832FBFDF91CF911F910F91FF9023
:1007A000BF90AF909F908F900895CF93DF93DC011F
:1007B0008C91803308F06DC0CB01FB01EE53FE4FEE
:1007C000249184589E4FFC018491882399F090E0F5
:1007D000880F991FFC01E85BFE4FC591D491FC0185
:1007E000EE59FE4F859194918FB7F894E881E22BF2
:1007F000E8838FBF8C91282F30E0F901EE0FFF1FA7
:10080000E20FF31FE95EFD4F962F9F736081607CBE
:10081000692B608311961C92119712961C92129765
:100820002CE0622F0E941B0A829FB001112430E04D
:1008300020E0AB01420F531FFA01EE0FFF1FE40F40
:10084000F51FE95EFD4F908196FD16C02F5F3F4F6B
:100850002C30310571F7813001F51092800082E073
:10086000809381001092850010928400B19A80914B
:100870006F00826080936F00EC918E2F90E0FC01FE
:10088000EE0FFF1FE80FF91FE95EFD4F80818064C6
:1008900080838C91DF91CF910895823061F4109222
:1008A000900080939100109295001092940088BB64
:1008B00080937100E1CF833069F41092A00082E050
:1008C0008093A1001092A5001092A40089BB809390
:1008D0007200D2CF8111D0CF1092200182E080939C
:1008E000210110922501109224018ABB809373008C
:1008F000C3CFAF92BF92CF92DF92EF92FF920F934E
:100900001F93CF93DF936B017A01EC01CE5EDD4F35
:1009100028813CE0389F8001399F100D1124A09060
:100920001602B12C27FF1FC0FB01118210828881A3
:100930008F5F888388819801280F311D87FD3A9544
:10094000F6012A153B051CF488818C30C4F18081A6
:100950009181049680349C4908F473C0F60180812B
:100960009181049670C088819801280F311D87FD00
:100970003A952A153B05DCF68881A801480F511DE0
:1009800087FD5A95FA01EE0FFF1FE40FF51FE95E90
:10099000FD4F808186FFCBCF8881F801E80FF11DE4
:1009A00087FDFA95CF01EE0FFF1FE80FF91FE95EF3
:1009B000FD4F808160E08F730E945B01B8CF808122
:1009C00091812881A801420F511D27FD5A959A0156
:1009D000FA01EE0FFF1FE20FF31FE95EFD4F2181C9
:1009E0003281820F931FF701918380838881980160
:1009F000280F311D87FD3A95F901EE0FFF1FE20F19
:100A0000F31FE95EFD4F808186FF22C08881080FB9
:100A1000111D87FD1A95F801EE0FFF1FE00FF11F62
:100A2000E95EFD4F808161E08F73DF91CF911F916F
:100A30000F91FF90EF90DF90CF90BF90AF900C940C
:100A40005B0180E49CE9F701918380838FEF8883C9
:100A5000DF91CF911F910F91FF90EF90DF90CF909A
:100A6000BF90AF9008951F920F920FB60F9211246E
:100A70002F933F938F939F93AF93BF938091A8023F
:100A80009091A902A091AA02B091AB023091A70265
:100A900023E0230F2D3758F50196A11DB11D20939A
:100AA000A7028093A8029093A902A093AA02B093F0
:100AB000AB028091AC029091AD02A091AE02B091D8
:100AC000AF020196A11DB11D8093AC029093AD02BF
:100AD000A093AE02B093AF02BF91AF919F918F915F
:100AE0003F912F910F900FBE0F901F90189526E801
:100AF000230F0296A11DB11DD2CF1F920F920FB6E8
:100B00000F9211240BB60F922F933F934F935F9345
:100B10006F937F938F939F93AF93BF93EF93FF93C5
:100B200080EB92E00E94B202FF91EF91BF91AF91F2
:100B30009F918F917F916F915F914F913F912F91F5
:100B40000F900BBE0F900FBE0F901F9018951F9225
:100B50000F920FB60F9211240BB60F922F938F9313
:100B60009F93EF93FF93E091C002F091C1028081C7
:100B7000E091C602F091C70282FD1DC09081809174
:100B8000C9028F5F8F732091CA02821741F0E091F2
:100B9000C902F0E0E055FD4F958F8093C902FF91A7
:100BA000EF919F918F912F910F900BBE0F900FBEE1
:100BB0000F901F9018958081F2CF1F920F920FB661
:100BC0000F9211240BB60F922F933F934F935F9385
:100BD0006F937F938F939F93AF93BF93EF93FF9305
:100BE00048E251E064E271E090E080E00E94790424
:100BF000FF91EF91BF91AF919F918F917F916F91F5
:100C00005F914F913F912F910F900BBE0F900FBEB0
:100C10000F901F9018951F920F920FB60F921124EC
:100C20000BB60F922F933F934F935F936F937F93E6
:100C30008F939F93AF93BF93EF93FF9348EA50E056
:100C400064EA70E083E090E00E947904FF91EF9104
:100C5000BF91AF919F918F917F916F915F914F91D4
:100C60003F912F910F900BBE0F900FBE0F901F90D2
:100C700018951F920F920FB60F9211240BB60F9278
:100C80002F933F934F935F936F937F938F939F9394
:100C9000AF93BF93EF93FF9348E950E064E970E0AE
:100CA00082E090E00E947904FF91EF91BF91AF91B3
:100CB0009F918F917F916F915F914F913F912F9174
:100CC0000F900BBE0F900FBE0F901F9018951F92A4
:100CD0000F920FB60F9211240BB60F922F933F93E2
:100CE0004F935F936F937F938F939F93AF93BF9334
:100CF000EF93FF9348E850E064E870E081E090E013
:100D00000E947904FF91EF91BF91AF919F918F91D4
:100D10007F916F915F914F913F912F910F900BBEFB
:100D20000F900FBE0F901F901895FC019091160226
:100D3000903398F481E0890F809316029083892F75
:100D400090E0FC01EE0FFF1FE80FF91FE95EFD4F79
:100D500088EB9BE09283818308958FEF80830895D1
:100D6000E0EBF2E01382128288EE93E0A0E0B0E0C4
:100D700084839583A683B78384E092E09183808304
:100D800085EC90E09587848784EC90E09787868750
:100D900080EC90E0918B808B81EC90E0938B828B48
:100DA00082EC90E0958B848B86EC90E0978B868B21
:100DB000118E128E138E148E82E693E00E94950699
:100DC0008FE593E00E9495068CE593E00E949506DE
:100DD00089E593E00E94950686E593E00E949506DA
:100DE00083E593E00E94950680E593E00E949506D6
:100DF0008DE493E00C949506789484B5826084BD6C
:100E000084B5816084BD85B5826085BD85B581600E
:100E100085BD80916E00816080936E00109281008C
:100E20008091810082608093810080918100816047
:100E30008093810080918000816080938000809108
:100E4000B10084608093B1008091B0008160809394
:100E5000B000809191008260809391008091910018
:100E600081608093910080919000816080939000D8
:100E70008091A10082608093A1008091A100816097
:100E80008093A1008091A00081608093A000809158
:100E900021018260809321018091210181608093F2
:100EA00021018091200181608093200180917A004E
:100EB000846080937A0080917A00826080937A00C7
:100EC00080917A00816080937A0080917A008068B6
:100ED00080937A001092C100E091C002F091C102AB
:100EE00082E08083E091BC02F091BD021082E0912B
:100EF000BE02F091BF028FEC80831092C802E09195
:100F0000C402F091C50286E08083E091C202F091B4
:100F1000C302808180618083E091C202F091C302AC
:100F2000808188608083E091C202F091C302808159
:100F300080688083E091C202F091C30280818F7D3E
:100F4000808362E070E082E693E00E94D50363E074
:100F500070E08FE593E00E94D5036DE270E08CE5D0
:100F600093E00E94D5036EE270E089E593E00E9471
:100F7000D50369E370E086E593E00E94D5036AE358
:100F800070E083E593E00E94D5036BE370E080E5B9
:100F900093E00E94D5036CE370E08DE493E00E943F
:100FA000D5038FB7F8944091A8025091A90260919F
:100FB000AA027091AB028FBF2FB7F8948091A8025C
:100FC0009091A902A091AA02B091AB022FBF841BFD
:100FD000950BA60BB70B893E9340A105B10560F7B1
:100FE00080EB92E00E949C02181619060CF0FDC0DE
:100FF00080EB92E00E947A02863409F063C066E9D1
:1010000070E08FE593E00E94720366E970E083E58B
:1010100093E00E9472036CE271E080E090E00E9435
:101020000C0262E370E082E693E00E94720362E8E1
:1010300070E086E593E00E9472036CE271E080E06C
:1010400090E00E940C026AE570E08FE593E00E9458
:1010500072036AE570E083E593E00E9472036CE23C
:1010600071E080E090E00E940C026AE570E082E6A8
:1010700093E00E9472036AE570E086E593E00E94C7
:1010800072036CE271E080E090E00E940C026EE17D
:1010900070E089E593E00E9472036EE170E08DE4F8
:1010A00093E00E9472036CE271E080E090E00E94A5
:1010B0000C0262E870E08CE593E00E94720362E348
:1010C00070E065C0873409F093C066E970E08FE591
:1010D00093E00E94720366E970E083E593E00E946A
:1010E00072036CE271E080E090E00E940C0262E822
:1010F00070E082E693E00E94720362E370E086E5AE
:1011000093E00E9472036CE271E080E090E00E9444
:101110000C026AE570E08FE593E00E9472036AE5D5
:1011200070E083E593E00E9472036CE271E080E07E
:1011300090E00E940C026AE570E082E693E00E9473
:1011400072036AE570E086E593E00E9472036CE248
:1011500071E080E090E00E940C026EE170E089E5B1
:1011600093E00E9472036EE170E08DE493E00E94D0
:1011700072036CE271E080E090E00E940C0262E396
:1011800070E08CE593E00E94720362E870E080E515
:1011900093E00E9472036CE271E080E090E00E94B4
:1011A0000C026AE570E089E593E00E9472036AE54B
:1011B00070E08DE493E00E9472036CE271E080E0E5
:1011C00090E00E940C026AE570E08CE593E00E94DA
:1011D00072036AE570E080E593E00E94720364E6C2
:1011E00070E080E090E00E940C020E944103F8CE83
:1011F000823509F05DC066E970E08FE593E00E94FA
:10120000720366E970E083E593E00E9472036CE28A
:1012100071E080E090E00E940C0262E870E082E6FB
:1012200093E00E94720362E870E086E593E00E941A
:1012300072036CE271E080E090E00E940C026AE5CB
:1012400070E08FE593E00E9472036AE570E083E549
:1012500093E00E9472036CE271E080E090E00E94F3
:101260000C026AE570E082E693E00E9472036AE590
:1012700070E086E593E00E9472036CE271E080E02A
:1012800090E00E940C026EE170E089E593E00E941C
:1012900072036EE170E08DE493E00E9472036CE2F1
:1012A00071E080E090E00E940C0262E870E069CF9B
:1012B0008C3409F09ACF66E970E08FE593E00E94E4
:1012C000720366E970E083E593E00E9472036CE2CA
:1012D00071E080E090E00E940C0262E370E082E640
:1012E00093E00E94720362E370E086E593E00E945F
:1012F00072036CE271E080E090E00E940C026AE50B
:1013000070E08FE593E00E9472036AE570E083E588
:1013100093E00E9472036CE271E080E090E00E9432
:101320000C026AE570E082E693E00E9472036AE5CF
:1013300070E086E593E00E9472036CE271E080E069
:1013400090E00E940C026EE170E089E593E00E945B
:1013500072036EE170E08DE493E00E9472036CE230
:1013600071E080E090E00E940C0262E370E0A3CEA6
:10137000052E97FB1EF400940E94CF0957FD07D05D
:101380000E94EA0907FC03D04EF40C94CF09509553
:101390004095309521953F4F4F4F5F4F0895909561
:1013A0008095709561957F4F8F4F9F4F08950E9454
:1013B0000C0AA59F900DB49F900DA49F800D911DC8
:1013C00011240895B7FF0C94D7090E94D709821BF6
:1013D000930B0895A1E21A2EAA1BBB1BFD010DC0A1
:1013E000AA1FBB1FEE1FFF1FA217B307E407F507D5
:1013F00020F0A21BB30BE40BF50B661F771F881FB1
:10140000991F1A9469F760957095809590959B0146
:10141000AC01BD01CF010895A29FB001B39FC001EF
:10142000A39F700D811D1124911DB29F700D811D10
:101430001124911D0895991B79E004C0991F9617F6
:1014400008F0961B881F7A95C9F780950895EE0FCE
:10145000FF1F881F8BBF0790F691E02D1994F89419
:02146000FFCFBC
:1014620000000000D4023E026B0221039C027A02B9
:021472008E02E8
:00000001FF
